:020000040800F2
:10000000A006002035020008D11A0008C91A00080D
:10001000CD1A0008A5130008051C00080000000008
:10002000000000000000000000000000B91B0008F4
:10003000A913000800000000D51A0008BD1B000825
:100040004F0200084F0200084F0200084F0200084C
:100050004F0200084F0200084F0200084F0200083C
:100060004F0200084F0200084F0200084F0200082C
:100070004F0200084F0200084F0200084F0200081C
:100080004F0200084F0200084F0200084F0200080C
:100090004F0200084F0200084F0200084F020008FC
:1000A0004F0200084F0200084F0200084F020008EC
:1000B0004F0200084F0200084F0200084F020008DC
:1000C0004F0200084F0200084F0200084F020008CC
:1000D0004F0200084F0200084F0200084F020008BC
:1000E0004F0200084F0200084F02000800F002F81B
:1000F00000F090F80AA090E8000C82448344AAF132
:100100000107DA4501D100F085F8AFF2090EBAE82F
:100110000F0013F0010F18BFFB1A43F0010318473B
:100120002C3F00004C3F0000103A24BF78C878C133
:10013000FAD8520724BF30C830C144BF04680C60ED
:10014000704700000023002400250026103A28BF35
:1001500078C1FBD8520728BF30C148BF0B60704739
:100160006E2900F05181702900F09582662903F014
:100170006886652903F06586672903F06286612930
:1001800003F0618603681B0A28BF41F080016929DA
:1001900000F0FE80642900F0FB80752900F0F880F3
:1001A0006F2900F02382782900F06182E92900F0AC
:1001B000BD81E42900F0BA81F52900F0B781EF296B
:1001C00000F02082F82900F060820368DB0928BF74
:1001D00041F08001632900F06587732900F06A8788
:1001E000E32900F07587F32900F07A870020704733
:1001F0001FB500F0CFFF04000020002102F0F6FF41
:10020000401C60600020002102F0DAFFE0601FBDAA
:1002100010B510BD00F090FF1146FFF7E9FF02F0A6
:1002200019F901F06DF803B4FFF7F2FF03BC01F018
:10023000B1F800000948804709480047FEE7FEE79B
:10024000FEE7FEE7FEE7FEE7FEE7FEE7FEE7FEE786
:1002500004480549054A064B70470000011C000888
:10026000ED000008A0000020A0060020A002002051
:10027000A00200207CB51D4616460C00009007D059
:100280004142A14202D32044401E01E04FF0FF3022
:10029000064B7B442A4669460190304600F0CDF873
:1002A000002C02D0009A002111707CBDCB0100000F
:1002B00070477047704710B500F0BCFA006810BD79
:1002C00010B5044600F0B6FA046010BD70B50446DF
:1002D00085690068C10601D5302600E02026C007E8
:1002E00007D070BDD4E9012130469047206A401CF8
:1002F00020626D1EF6D570BD70B504468569007824
:10030000C00707D170BDD4E9012120209047206AA1
:10031000401C20626D1EF6D570BD09684A0501D5E6
:1003200040B27047C905FCD500B2704709684A055C
:1003300001D5C0B27047C905FCD580B2704770B511
:100340000C460546012A05D02878800600D5EA69C2
:10035000002302E0012305E05B1C934202D2E05C33
:100360000028F9D1A869E618C01AA861286A1844BB
:1003700028622846FFF7AAFF04E0D5E9012114F816
:10038000010B9047B442F8D32846FFF7B5FF70BD84
:100390002DE9F0410646002410687529314616A55E
:1003A00010D0FFF7BAFF002802DA404213A507E099
:1003B00031688A0701D512A502E0490704D511A5C5
:1003C000012401E0FFF7B2FF00210A2206F1240711
:1003D00009E0B0FBF2FCB0FBF2F302FB1C00303092
:1003E00078541846491C0028F3D123462A46304643
:1003F000BDE8F04100F067BA000000002D000000E9
:100400002B0000002000000011680268006A5305FC
:1004100001D508700AE0D30501D5088006E013066F
:1004200003D5C217C1E9000200E00860012070474F
:1004300001694A1C02610878704700B58FB0CDE9A8
:1004400001310021059105497944CDE90310114698
:10045000684600F02BF90FB000BD0000E5FFFFFF7C
:10046000D1E900239A4202D2531C0B6010707047EE
:100470002DE9FF5F15468A460446DFF8AC80F84454
:100480000027D8E900103E46CDE9001010E03AF808
:1004900016106A4602A800F027FE411C07D02178FA
:1004A000890603D5E269391891420DD80744761CB4
:1004B0002078800602D5E069B84205DDAE42E6DB71
:1004C0003AF816000028E2D1A069C01BA0612046BE
:1004D000FFF7FCFED8E90010CDE90010002017E07E
:1004E0003AF818106A4602A800F0FEFDB0F1FF3F8E
:1004F00081460BD000250DF1080B05E0D4E9012160
:100500001BF8050090476D1C4D45F7D308F101001D
:10051000B0428046E4DB206A384420622046FFF780
:10052000EBFEBDE8FF9F0000AA3A00002DE9F04174
:100530008046D21D22F007020025D2E90002F529EB
:1005400015A614D0011E72F1000106DA0023D0EBCB
:10055000030063EB020211A608E0D8F800108B0735
:1005600001D50FA602E0490701D50EA601251146C7
:10057000002408F1240704E000F060F930323A5515
:10058000641C50EA0102F7D12B4632462146404610
:10059000BDE8F04100F097B9000000002D00000018
:1005A0002B0000002000000030B4002100F12404E2
:1005B00008E002F00705D208303542EA4372DB0852
:1005C0006554491C52EA0305F3D10468002310A2C4
:1005D000250708D504F020040C4304D0C469012386
:1005E0000CA2641EC46130BC00F06DB910B50446A5
:1005F00021461068FFF79AFE02462046BDE81040EB
:100600000023D1E7D21D22F00701D1E90023CBE777
:100610000000000030000000F0B40D46018809051C
:1006200002D5214C7C4402E01F4C7C440E34002156
:1006300000F1240608E002F00F071209E75D42EA24
:1006400003721B097754491C52EA0307F3D102785D
:100650000023120704D5702D06D009B102231134EE
:100660002246F0BC00F02FB901231034F8E770B532
:1006700004460D4621461068FFF758FE02462946FB
:100680002046BDE870400023C6E7D21D22F00703D4
:10069000D3E90023C0E70368126843F02003036036
:1006A0000823C3610023B7E70C3900002DE9F05F90
:1006B000894604464FF0000ADFF874B1FB44C0F8E5
:1006C00020A02046E1688847002874D0252806D05D
:1006D000D4E901219047206A401C2062F1E70026FE
:1006E0005F462046E16888472028054607DB312D14
:1006F00005D2781910F8200C08B10643F1E7B007CD
:1007000001D526F00406C4F81CA00027C4F818A0E0
:100710002A2D09D0284602F0F9FB38B304EB8708EC
:10072000303DC8F8185019E059F8041B204604EB76
:1007300087029161E1688847012F054618D1E06979
:10074000002820DA26F020061DE0D8F8180000EB7B
:10075000800005EB40003038C8F818002046E168FA
:100760008847054602F0D2FB0028EED1012F0AD0BF
:100770002E2D08D12046E16888477F1C0546022FB0
:1007800046F02006C4DBA069002803DA404246F0A8
:100790000106A061F00701D026F010066C2D0BD0E9
:1007A000682D09D04C2D39D06A2D35D0742D35D017
:1007B0007A2D33D016E038E0E1682F46204688478E
:1007C000B842054609D16C2F26D04FF48060E1680D
:1007D000064320468847054604E06C2F1AD04FF4A4
:1007E000807006430DB3A5F14100192802D82035C9
:1007F00046F400664A462946204626604E46FFF7E4
:10080000AFFC80B101280BD0F61D26F0070000F1E7
:10081000080956E74020E4E78020D8E70020D6E723
:1008200006F104094DE7284652E7206ABDE8F09F2B
:100830009C380000004870471000002030B5B0F12F
:100840000A0271F100034FEA900E4EEA817EB0EB8E
:100850000E0061EB91014FEA101E4EEA017E10EB93
:100860000E0041EB11114FEA102E4EEA016E10EB13
:100870000E0041EB11214FEA104E4EEA014E10EBF3
:100880000E0041EB1141401841F100014FEAD00048
:1008900040EA41704FEAD1014FEA810444EA907482
:1008A00010EB800544EB01046D1944EB0404521B6A
:1008B000A3414FF0000348BF0A3200D530BD401CB1
:1008C00041F1000130BD2DE9F0470D4699469246B1
:1008D000044600F124080168880604D5E06921F087
:1008E0001001216000E00120A84201DD471B00E06B
:1008F0000027A1697A1902EB0900081AA061207883
:10090000C00602D42046FFF7E1FC002608E0D4E947
:1009100001211AF806009047206A401C761C2062CC
:100920004E45F4DB2078C0060AD52046FFF7CEFC02
:1009300006E0D4E9012130209047206A401C206263
:10094000381EA7F10107F4DC07E0D4E9012118F80B
:1009500005009047206A401C2062281EA5F1010571
:10096000F3DC2046FFF7C8FC2078000602D5022001
:10097000BDE8F0870120FBE72DE9FF4F0C461E463E
:100980004FF0FF378BB0D2E90001DDF860800A90AC
:100990008A46C1F30A5505B93D46002108464FF085
:1009A0000000BAF1000F00F4400005DA00EB80000F
:1009B0004FF4400101EA50004FEA9059B9F1010F9C
:1009C00000DDB9460A9850EA4A000ED044F61050AD
:1009D000A5F2FF3545432F14B8F1000F1ED0754224
:1009E000291E1EDDC9F100021CE0B8F1010F4FF015
:1009F000000001D0302103E0F24305E02154401C07
:100A0000B042FBDB30460022002121540B99C1F893
:100A10000880C1E900200FB0BDE8F08FBD1B6D1C40
:100A2000DEE74A4600DA694206A800F0F7FB06ABAB
:100A300093E8070003AB83E8070050460A9901F0EA
:100A40006FFE8DE80700A0F500501F380090039856
:100A5000002D0ADD42F21F014A460844002303A983
:100A60000390684602F0D8F809E0A0F500504A4625
:100A70001F38002303A90390684602F0E2F88DE8CE
:100A800007000004000C03D04FF0FF30410800E0E5
:100A90001046B8F1000F03D00022009215461EE068
:100AA000751E05D4FFF7CAFE303262556D1EF9D5AA
:100AB000B3460122084302D000227F1C04E02078C4
:100AC000302801D100227F1E002A099784D01DE022
:100AD000112D07DAFFF7B2FE303262556D1C50EA75
:100AE0000102F5D1084302D00098C8B10EE0002100
:100AF000681E05E0235C625C63542254401E491C5E
:100B00008142F7DBAB46A81B401E0990002004F889
:100B10000B000B98099AC0F80880C0E9002B7AE70F
:100B200011264FF0000857E72DE9F04F884604469C
:100B3000D21D22F0070191B0D1E90001CDE90A01EF
:100B400002F0B6F902460B98C00F01D02D2007E045
:100B50002068810701D52B2002E0202101EAC00096
:100B6000032A099001D0072A05DB034641462046A7
:100B700000F014FB0BE12078800601D5E06900E06D
:100B80000620B8F1650F814606D0B8F1660F18D07F
:100B9000B8F1670F70D131E00020B9F1110F00906A
:100BA00001DB112301E009F101030AAA01A90CA844
:100BB000FFF7E2FEDDE90C70002609F1010583462E
:100BC00047E001204B4600904FF000470AAA01A9D8
:100BD0000CA8FFF7D1FEDDE90DB00C995D460026AB
:100BE00010B909F101000D18B9EB050003D4C0F1EB
:100BF000FF3609F10105A5EB09002BE0B9F1010F62
:100C000001DA4FF001090020B9F1110F00904846B8
:100C100001DD112300E003460AAA01A90CA8FFF791
:100C2000ABFEDDE90C704D460026834620780007B8
:100C30000AD4AB4500DA5D4601A8012D04DD411957
:100C400011F8011C302907D04F4502DA17F1040FC3
:100C500004DA012082460FE06D1EEEE7002F02DC71
:100C6000ED1B3E4403E0781CA84200DD7D1CB81B50
:100C700000F1010A4FF000472078000703D4AA458D
:100C800001DB4FF0FF3A0021B7F1004F0DF14308AF
:100C90008DF8431024D002202B23002F01DA7F424D
:100CA0002D230A21021EA0F1010000DC5FB197FB99
:100CB000F1FC97FBF1F201FB1C7C17460CF1300CA8
:100CC00008F801CDEEE7A8F10100037021880905BD
:100CD00001D5452100E06521A0F1010800F8011CC3
:100CE00009980FA9A1EB0807FF1D00B101204119C8
:100CF00001EBEA70A1693844081A401EA06120780F
:100D0000C00602D42046FFF7E1FA099828B1D4E9D9
:100D100001219047206A401C20622078C00622D51D
:100D20002046FFF7D3FA1EE0002E04DBB34502DDB8
:100D300001A8805D00E03020D4E901219047206ABD
:100D4000401C2062761CAAF101005FEA000A0AD169
:100D500000F020FAC0680168405CD4E901219047A6
:100D6000206A401C2062281EA5F10105DCDC07E09A
:100D7000D4E9012118F8010B9047206A401C206239
:100D8000381EA7F10107F3DC2046FFF7B5FA032070
:100D900011B041E62DE9F04F04460D46D21D22F078
:100DA000070089B0D0E900974846394602F080F83C
:100DB0000246F80F01D02D2307E02068810701D5F6
:100DC0002B2302E0202101EAC0038DF820300BB173
:100DD000012000E00020032A824601D0072A04DB1C
:100DE0002946204600F0DAF93FE12078800601D458
:100DF0000D2500E0E569C7F30A560D2D49DA0021FB
:100E00004FEA175B08464FF00000002F00F4400047
:100E100007DA00EB80004FF4400100EBD07001EAEC
:100E200060008115012901DD4FF0FF3100224FEAFA
:100E3000850CBCF1180F06D31346ACF118004FF027
:100E40008052C24003E04FF4801323FA0CF30CF1FC
:100E50000C0CBCF1200F04D3ACF1200C09FA0CF0FF
:100E600001E007FA0CF000294FF0004801DD18B945
:100E70000FE00ED140450CD319EB02095F4121B9B7
:100E8000404502D19F4329EA0209BBEB175F00D01E
:100E9000761C2088000502D57B48784402E07A4819
:100EA0007844193808AA302302F80A30037C0AF182
:100EB0000101002E0AF1020A53546A4602DC4FF087
:100EC000300101E04FF031014FF001088DF80010C2
:100ED00002D0A6F2FF3603E059EA470100D06B4E7C
:100EE000002D02DC2178090704D54FF002082E21DD
:100EF0008DF80110C44600210BE0C7F303433F0106
:100F0000C35C491C6D1E02F80830052908F1010870
:100F100001DA002DF1DC00210CE000EB1973491C13
:100F20001B786D1E082902F808304FEA091908F1EC
:100F3000010801DA002DF0DC21688B0602D516E0ED
:100F4000A8F10108E04505DD02EB080313F8013CB8
:100F5000302BF5D0B8F1000F09DD02EB080313F8D0
:100F6000013C2E2B03D1090701D4A8F10108002D63
:100F700005DD3E2102F808106D1E08F10108407CD5
:100F8000002E02F8080008F1010804DA2D2076424C
:100F900002F8080002E02B2002F808000A214FF4B2
:100FA0007A70864208F101080BDB96FBF0F33033D0
:100FB00002F8083096FBF0F308F1010800FB136615
:100FC00001E0642E0CDB642096FBF0F3303302F872
:100FD000083096FBF0F308F1010800FB136601E00E
:100FE0000A2E06DB96FBF1F0303002F8080008F11B
:100FF000010896FBF1F001FB1060303002F80800A8
:10100000A16908F1010808EB050202EB0A00081AC1
:10101000A0612078C00602D42046FFF757F9216A64
:1010200008AE01EB0A00206204E0D4E9012116F8C1
:10103000010B9047BAF1010AF7D22078C00602D519
:101040002046FFF743F96E4609E016F8010B3E28EB
:101050000FD0D4E901219047206A401C2062B8F1EA
:101060000108F2D22046FFF747F909B00320BDE896
:10107000F08F206A2844206203E0D4E90121302067
:1010800090476D1EEBD3F8E7E230000002FCFFFF53
:1010900010B5436913B1AFF3008001E0FFF74FF9DA
:1010A000012010BD127800F124010A7000224A705C
:1010B0000122EDE711684FF0FF32E9E710B543690F
:1010C00013B1AFF3008001E0FFF7D2F9012010BDAA
:1010D000128800F1240182840022C2840122EDE7FB
:1010E00011684FF0FF32E9E72DE9F04116460C4652
:1010F000054600F047F8036893F80101012807D07E
:10110000FF2C12D8185D80B101202C70BDE8F08151
:10111000D3F807013246214603F20713C7182846C1
:10112000BC46BDE8F041002360474FF0FF30EDE7DB
:1011300000487047100000207546FFF7F9FFAE46E3
:1011400005006946534620F00700854618B020B5D3
:10115000FFF77EF8BDE820404FF000064FF0000793
:101160004FF000084FF0000BAC46ACE8C009ACE80B
:10117000C009ACE8C009ACE8C00921F007018D4600
:101180007047000010B500F005F8001D10BD00BF4D
:101190005D20000000487047300000202DE9F0413C
:1011A0001F46044603260168072A01F4006004DB99
:1011B00008B116A505E016A503E008B115A500E0E5
:1011C00015A521F010002060A069C01EA0610FB11C
:1011D000401EA0612046FFF779F84FB1D4E9012104
:1011E00038469047206A401C2062C01C206206E0FE
:1011F000206AFAE7D4E9012115F8010B9047761E21
:10120000F8D22046FFF778F8BDE8F0814E414E0055
:101210006E616E00494E4600696E66002DE9F0472A
:10122000814616468AB0354878440DC88DE80D00D1
:1012300032487844801C03AC0DC884E80D0041F6A8
:101240009B300844372190FBF1F290FBF1F5A5F1BA
:10125000800501FB12041B3C02D56442012000E022
:101260000020DFF898A080460027FA44AAF1BE0AC1
:101270000EE0E0070AD03246684607EB470101233B
:101280000AEB810101F0DDFC8DE8070064107F1C92
:10129000002CEED1194F7F44AE3F19E0E80715D07E
:1012A00007EB04100DF1180A90E80E008AE80E0012
:1012B000C068F04201D1981908903246012306A96E
:1012C00003A801F0BEFC03AB83E807006D10641CAB
:1012D000002DE3D14FF0010332466946B8F1000F0B
:1012E00003A802D001F098FC01E001F0AAFCC9E9D2
:1012F0000001C9F808200AB0BDE8F087E42D00001D
:1013000010B50446AFF300802046BDE81040FEF75C
:101310008ABF00004FF0013C50F8042B51F8043B09
:101320009A4221D1A2EB0C03934313EACC1317D1B9
:1013300050F8042B51F8043B9A4215D1A2EB0C0350
:10134000934313EACC130BD150F8042B51F8043B10
:101350009A4209D1A2EB0C03934313EACC13DBD0DE
:101360004FF00000704700BFD01A01BAB1FA81F106
:1013700001F0180122FA01F0CB40DBB2C0B2C01A72
:10138000C1F120012CFA01F3D11A914311EAC311E2
:10139000E6D1704701491820ABBEFEE726000200E7
:1013A00070470000FEE7000070470000B0B504463B
:1013B00000F010F8054640F20000C2F2000000788C
:1013C000611C18BF044400BF00F004F8401BA04299
:1013D000FAD3B0BD40F29800C2F200000068704736
:1013E00040F2000040F29801C2F20000C2F2000197
:1013F00000780A68104408607047000080B542F227
:101400000000C4F20200016841F0100101600320F5
:1014100000F07AF80F2000F005F800F027F800201F
:1014200080BD000070B540F20006C2F2000640F236
:1014300008013278C2F200014FF47A730968B3FBF5
:10144000F2F20446B1FBF2F1084600F027FB0F2C44
:101450004FF0010508D838B94FF0FF30214600227F
:10146000002500F025F87460284670BD82B041F276
:101470001800C4F202000168022241F0010101607B
:10148000016801F0010101910199416841F0805129
:101490004160406800F08050009000980420C4F241
:1014A0000100016862F31A61016002B07047000038
:1014B00010B54EF60C5CCEF2000CDCF80030C3F335
:1014C000022E8EF00704042C28BF0424BEF103036F
:1014D0004FF0FF3E0EFA04F438BF0023A1439940B9
:1014E0000EFA03F39A43114300F00F0200F1604338
:1014F0000901043A03F564436244002848BF02F13D
:101500000C03197010BD00004EF60C51CEF2000114
:101510000A684FF6FF031A4060F30A2242F0806027
:1015200040F0FD70086070472DE9F04381B000285D
:1015300000F0858042F20008C4F202080446D8F8A0
:1015400000000D4600F0070088420CD2D8F80000D9
:1015500020F007002843C8F80000D8F8000000F089
:101560000700A8426BD1206841F204098107C4F248
:10157000020917D5410705D5D9F8001041F4E061FB
:10158000C9F80010010705D5D9F8001041F46051E1
:10159000C9F80010D9F80010A26821F0F001114339
:1015A000C9F80010C00741D1D8F8000000F00700CA
:1015B000A8420CD9D8F8000020F007002843C8F84A
:1015C0000000D8F8000000F00700A84237D12068DA
:1015D000410707D5D9F80010E26821F4E061114312
:1015E000C9F80010000708D5D9F80000216920F4D7
:1015F000605040EAC100C9F80000D9F8002002F0AC
:101600000C00082841F20020C0F27A0050D144F2C8
:101610003A03C2F38341C0F60003595CD2033BD4C2
:1016200040F60010C0F23D00484341E060680228E7
:101630000AD001282AD159F8041C890308D40120B2
:1016400001B0BDE8F08300BF59F8041C8901F6D54C
:10165000D9F8001021F003010843C9F80000FFF792
:10166000B9FE064641F28837D9F80000616800F0FB
:101670000C00B0EB810F97D0FFF7ACFE801BB84297
:10168000F2D9032001B0BDE8F08300BF59F8041C73
:101690008907D4D5DCE700BFD9F8002044F238032D
:1016A000C2F34042C0F600039A5C4843B0FBF2F03C
:1016B000D9F8001044F22802C1F30311C0F6000269
:1016C000515C40F2080220FA01F140F20400C2F23B
:1016D00000000068C2F200021160FFF7A3FE0020C4
:1016E00001B0BDE8F08300002DE9F04182B0002890
:1016F00068D00446007841F20006C007C4F2020632
:1017000025D0706800F00C0004281BD0706800F031
:101710000C00082802D17068C00313D46068002848
:1017200000F06881B0F5A02F00F07C81B0F5803F1B
:1017300000F07C81306820F480303060306820F424
:10174000802076E13068800301D56068D0B32078CE
:10175000800718D5706810F00C0F07D0706800F083
:101760000C0008286ED17068C0036BD43068800705
:1017700002D52069012825D13068616920F0F80080
:1017800040EAC1003060207800071FD4207840076D
:1017900032D4E56995B1706800F00C00082840F07B
:1017A0008F80012D0ED07068216A00F480328A4249
:1017B00008D1616A00F47010884203D1002002B0A1
:1017C000BDE8F081012002B0BDE8F081A0690028E9
:1017D00062D00020C4F242200121C0F88014FFF73B
:1017E000F9FD0546706A800700F18C80FFF7F2FD75
:1017F000401B0228F6D92AE1F06910F0805808D180
:10180000F06940F08050F061F06900F08050009085
:10181000009847F20007C4F200073868C00529D4D1
:10182000386840F480703860FFF7D4FD054600BF8B
:101830003868C0051ED4FFF7CDFD401B6428F7D9DA
:1018400005E100BF2069002840F20000C4F24220F8
:1018500000F0828001210160FFF7BCFD054600BF5A
:10186000306880073FF588AFFFF7B4FD401B0228C2
:10187000F6D9ECE0E068002800F08080052800F050
:101880009780012800F09880306A20F001003062D3
:10189000306A20F0040092E00020C4F242200021CF
:1018A000C0F88014FFF796FD054600BF706A8007F8
:1018B0007FF56CAFFFF78EFD401B0228F6D9C6E01E
:1018C0000027C4F2422700203866FFF783FD022D6F
:1018D00005460BD13068800140F1BE80FFF77AFDEC
:1018E000401B02284FF00300F4D968E730688001FC
:1018F0007FF564AFFFF76EFD401B02284FF0030039
:10190000F4D95CE740F20800C2F20000006844F637
:10191000D351C1F26201A0FB0101480A019000BF4E
:1019200000BF0198411E002801913FF42FAF00BF76
:101930000198411E002801913FF428AF00BF019893
:10194000411E002801913FF421AF00BF0198411EC4
:1019500000280191E4D119E700210160FFF73AFD69
:10196000054600BF306880077FF50DAFFFF732FDF9
:10197000401B02284FF00300F4D920E7306A20F022
:1019800001003062306A20F004003062FFF722FD6F
:10199000054641F2883700BF306A800720D5FFF73F
:1019A00019FD401BB8424FF00300F5D907E700BF0F
:1019B000306A40F004003062306A40F0010030626A
:1019C000FFF708FD054641F2883700BF306A8007FF
:1019D00006D4FFF7FFFC401BB842F7D937E000BF41
:1019E000B8F1000F7FF4D5AEF06920F08050F061BF
:1019F000CFE600BF306820F480303060306820F4DB
:101A000080203060FFF7E6FC054600BF30688003A9
:101A10007FF59DAEFFF7DEFC401B64284FF003000E
:101A2000F4D9CCE6306840F480203060306840F46F
:101A300080303060FFF7CEFC054600BF3068800381
:101A40003FF585AEFFF7C6FC401B6428F6D903209E
:101A500002B0BDE8F08100BF206AB0F5803F05D13B
:101A60007168A26821F40031114371607168626A83
:101A700021F4741111430843706001203866FFF7A8
:101A8000A9FC0446306880013FF598AEFFF7A2FC40
:101A9000001B02284FF00300F4D990E6411E0020FD
:101AA000B0EB116F1CBF012070474EF21002CEF256
:101AB000000251604EF62351CEF20001F0230B706C
:101AC0000721906011607047FEE70000FEE700000C
:101AD000FEE70000704700000A2907D0322907D02E
:101AE00064290CBF19211D2103E000BF112100E072
:101AF000152180B501700D200B21012200F084F822
:101B00000D200921112200F07FF8002080BD000087
:101B1000F0B581B004460020254605F8010F0D20E0
:101B200006212A4600F048F92878C00704D101258B
:101B3000284601B0F0BD00BF0D2000212A46062333
:101B4000002500F0EFF9B4F90160B4F90300B4F82E
:101B5000051026816081A18101F0A8FF074630466B
:101B600001F0A4FF0146384601F0D8F901F0DEFD8E
:101B700048F20003C4F26603002201F0D9FC42F2ED
:101B8000FB13C4F209034FF0C04201F077FB01F0F0
:101B900043FB00210646606101F06AFE0021074612
:101BA000C4F2B431304601F0EDFD002F18BF3046CD
:101BB0002061284601B0F0BD70470000FFF710BC5F
:101BC000B0B590B04FF4803000240125079006A8EE
:101BD000CDE90E44CDE90C44CDE90A44CDE90844F1
:101BE0000695FFF781FD0F20CDE9010501A8002131
:101BF000CDE903440594FFF797FC10B0B0BD000099
:101C000070470000FEE7000045F2144CC4F2000CDF
:101C1000DCF804309B070CD5DCF804309B0744BF8C
:101C2000DCF804305FEA837303D5DCF804309B07EB
:101C3000EED45CF8143C43F480734CF8143CDCF8AC
:101C40000030DB070CD1DCF80030DB0704BFDCF828
:101C500000305FEAC37303D1DCF80030DB07EED05D
:101C600040004CF8040CDCF8000080070CD4DCF8D1
:101C7000000080075CBFDCF800005FEA807003D4DE
:101C8000DCF800008007EED5DCF80400DCF800008A
:101C900000060CD4DCF8000000065CBFDCF8000095
:101CA0005FEA006003D4DCF800000006EED54CF8D3
:101CB000041CDCF8000000060CD4DCF80000000670
:101CC0005CBFDCF800005FEA006003D4DCF80000D1
:101CD0000006EED54CF8042CDCF8000040070CD4CC
:101CE000DCF8000040075CBFDCF800005FEA4070F1
:101CF00003D4DCF800004007EED55CF8140C40F487
:101D000000704CF8140C704745F21442C4F2000203
:101D100053689B0709D553689B0744BF53685FEA24
:101D2000837302D553689B07F2D452F8143C43F4F2
:101D3000807342F8143C1368DB0709D11368DB0792
:101D400004BF13685FEAC37302D11368DB07F2D0E4
:101D5000400042F8040C1068800709D4106880071E
:101D60005CBF10685FEA807002D410688007F2D50B
:101D700050681068000609D4106800065CBF10683F
:101D80005FEA006002D410680006F2D542F8041C35
:101D90001068400709D4106840075CBF10685FEA0C
:101DA000407002D410684007F2D552F8140C40F489
:101DB000007042F8140C704745F2144CC4F2000C49
:101DC000DCF804309B070CD5DCF804309B0744BFDB
:101DD000DCF804305FEA837303D5DCF804309B073A
:101DE000EED45CF8143C43F480734CF8143CDCF8FB
:101DF0000030DB070CD1DCF80030DB0704BFDCF877
:101E000000305FEAC37303D1DCF80030DB07EED0AB
:101E100040004CF8040CDCF800309B070CD4DCF8D4
:101E200000309B075CBFDCF800305FEA837303D4AB
:101E3000DCF800309B07EED5DCF80430DCF800302D
:101E40001B060CD4DCF800301B065CBFDCF800304D
:101E50005FEA036303D4DCF800301B06EED54CF8D0
:101E6000041CDCF8001009060CD4DCF8001009068C
:101E70005CBFDCF800105FEA016103D4DCF80010FD
:101E80000906EED55CF8141C41F480714CF8141C62
:101E9000DCF80010C9070CD1DCF80010C90704BF3A
:101EA000DCF800105FEAC17103D1DCF80010C9074B
:101EB000EED040F001004CF8040CDCF80000800784
:101EC0000CD4DCF8000080075CBFDCF800005FEA9F
:101ED000807003D4DCF800008007EED55CF8140CA9
:101EE00020F480604CF8140CDCF804005CF8140C4E
:101EF00040F400704CF8140CDCF8000040060CD4E0
:101F0000DCF8000040065CBFDCF800005FEA4060DF
:101F100003D4DCF800004006EED55CF8040C107029
:101F20007047000080B545F2144CC4F2000CDCF898
:101F300004E05FEA8E7E0ED5DCF804E05FEA8E7E78
:101F400044BFDCF804E05FEA8E7E04D5DCF804E0F0
:101F50005FEA8E7EEBD45CF814EC4EF4807E4CF895
:101F600014ECDCF800E05FEACE7E0ED1DCF800E095
:101F70005FEACE7E04BFDCF800E05FEACE7E04D1EB
:101F8000DCF800E05FEACE7EEBD04FEA400E4CF882
:101F900004ECDCF8000080070CD4DCF800008007BB
:101FA0005CBFDCF800005FEA807003D4DCF800005E
:101FB0008007EED5DCF80400DCF8000000060CD445
:101FC000DCF8000000065CBFDCF800005FEA00609F
:101FD00003D4DCF800000006EED54CF8041CDCF855
:101FE000000000060CD4DCF8000000065CBFDCF842
:101FF00000005FEA006003D4DCF800000006EED5C4
:102000005CF8140C40F480704CF8140CDCF8000000
:10201000C0070CD1DCF80000C00704BFDCF80000EA
:102020005FEAC07003D1DCF80000C007EED04EF0CC
:1020300001004CF8040CDCF8000080070CD4DCF83C
:10204000000080075CBFDCF800005FEA807003D40A
:10205000DCF800008007EED5DCF804005CF8140C16
:1020600040F480604CF8140C05E000BF5CF8040CF0
:10207000013B02F8010BD8B2002808BF80BD01283F
:1020800012D0DCF800004006F0D4DCF80000400676
:102090005CBFDCF800005FEA4060E7D4DCF80000D9
:1020A0004006EED5E2E700BF5CF8140C20F4806037
:1020B0004CF8140C5CF8140C40F400704CF8140C40
:1020C000DCF8000040060CD4DCF8000040065CBFE1
:1020D000DCF800005FEA406003D4DCF80000400652
:1020E000EED55CF8040C107080BD000081B045F2A4
:1020F0001440C4F200004FF0000C002206E000BFC4
:1021000001320168802A04BF01B0704750F8143CC6
:1021100043F4807340F8143C0368DB070AD103687A
:10212000DB0704BF03685FEAC37303D10368DB07FF
:10213000F2D000BF530040F8043C00BF0168436880
:10214000002918BF002B11D101684368002918BF6E
:10215000002B0BD101684368002918BF002B05D163
:1021600001684368002918BF002BE7D050F8141C01
:1021700041F4007140F8141CCDF800C00099B1F58D
:102180007A7FBDDA0099013100910099B1F57A7F2B
:10219000B6DA0099013100910099B1F57A7FAFDA92
:1021A0000099013100910099B1F57A7FA8DA009980
:1021B000013100910099B1F57A7FE3DBA0E70000DF
:1021C00041F21800C4F20200016841F00801016008
:1021D00040F60041C4F201010A6842F040720A6010
:1021E0000A6842F040620A600A6842F040520A609F
:1021F0000A6842F040420A60016841F00101016052
:10220000416841F40011416045F20440C4F200000D
:10221000016821F03F010160016841F0080101609F
:102220000921C161816941F02801816150F8041CD4
:1022300041F0010140F8041C7047000080B52720E0
:102240000C21FFF761FD27200821FFF75DFD272006
:102250001C21FFF759FD27201821BDE88040FFF71A
:1022600053BD000070B501F1400363F07F036FF0D0
:102270007F02012808BF81EA020323F00F00190141
:1022800000F10C0200F1080401F10C0501F108064F
:10229000D1B22720FFF738FDE1B22720FFF734FD48
:1022A000E9B22720FFF730FDF1B22720FFF72CFD20
:1022B0000220BDE87040FFF779B8000080B5272004
:1022C0003C21FFF721FD27203821FFF71DFD2720A6
:1022D0003C21FFF719FD27203821FFF715FD2720A6
:1022E0003C21FFF711FD27203821FFF70DFD2720A6
:1022F0002C21FFF709FD27202821FFF705FD3220BB
:10230000FFF754F827202C21FFF7FEFC2720282177
:10231000FFF7FAFC27208C21FFF7F6FC2720882105
:10232000FFF7F2FC3220FFF741F827200C21FFF7DE
:10233000EBFC27200821FFF7E7FC27201C21FFF7F3
:10234000E3FC27201821FFF7DFFC3220FFF72EF8EF
:1023500027200C21FFF7D8FC27200821FFF7D4FC09
:1023600027206C21FFF7D0FC27206821FFF7CCFC49
:102370003220FFF71BF827200C21FFF7C5FC272090
:102380000821FFF7C1FC2720CC21FFF7BDFC272047
:10239000C821FFF7B9FC3220FFF708F827200C21ED
:1023A000FFF7B2FC27200821FFF7AEFC27202C21E5
:1023B000FFF7AAFC27202821FFF7A6FC3220FEF712
:1023C000F5FF27208C21FFF79FFC27208821FFF7AE
:1023D0009BFC27200C21FFF797FC27200821BDE854
:1023E0008040FFF791BC000083B0F0B586B0044692
:1023F0000BA801AD0EC00BAB28461421224600935A
:10240000FDF738FF9DF80400F8B16C1E20F00F01B5
:10241000000101F10D0201F1090500F10D0600F1C5
:102420000907D1B22720FFF76FFCE9B22720FFF799
:102430006BFCF1B22720FFF767FCF9B22720FFF70A
:1024400063FCA07801340028E0D106B0BDE8F0407C
:1024500003B0704740F60006C4F20106FEF7CEFF57
:10246000FFF7AEFB41F21800C4F20200016841F030
:1024700010010160016841F020010160016841F034
:1024800004010160016841F00801016041F20400AB
:10249000C4F20100016821F470010160016841F497
:1024A00040110160016841F480010160316821F44C
:1024B00070413160316841F440513160316841F41C
:1024C00080413160316821F470213160316841F41C
:1024D00040313160316841F480213160D6F8001418
:1024E00021F00F01C6F80014D6F8001421F0F00115
:1024F000C6F80014D6F8001441F08801C6F800149C
:102500004FF60841CFF6FF71425842F003024250A5
:10251000FFF756FEFFF7EAFD40F27007C2F2000730
:1025200007F110042046C821FFF7D6FAFFF7C6FED0
:102530006420FEF73BFF01200321FFF793FE642098
:10254000FEF734FF41F21000C4F201004FF40051D5
:1025500001604FF0080B4FF010084FF40070C6F800
:1025600010B0C6F8108030614FF40060306159A09F
:10257000FFF73AFF40F20C09C2F200090FF2901A7D
:1025800058A50CE0F068C6F810B000F0100040EA62
:10259000004080F010003061FEF71CFFF860D6F8B4
:1025A0000804C00736D1D6F80804C0070CD1D6F805
:1025B0000804C00704BFD6F808045FEAC07003D15E
:1025C000D6F80804C007EED03878B0FA80F0400999
:1025D0003870002847D00128E1D1FEF7FBFE79686A
:1025E000401AC82804D32046FFF792FA002843D0A7
:1025F000FEF7F0FEF968401AB0F57A7FCFD3F068A5
:10260000C6F8108000F0080040EA004080F00800A2
:10261000C1E700BFD6F80804800721D4D6F8080423
:1026200080070DD4D6F8080480075CBFD6F80804EC
:102630005FEA807004D4D6F808048007EED500BFA6
:1026400099F80000B0FA80F0400989F80000FFF71F
:10265000F5FD01200021FFF705FE2846FFF7C4FE27
:1026600038780028B7D1FEF7B5FEF968401AB0F502
:10267000FA7F94D386E700BF99F80000396AB96001
:1026800070B10128B4D101200021FFF7EBFDB8683B
:1026900001F04CF8024650460B46FFF7A5FEA7E7AF
:1026A00001200021FFF7DEFDB86801F03FF8024687
:1026B00010A00B46FFF798FE02200021FFF7D2FD85
:1026C000B7F91810B7F91A20B7F91C300DA0FFF7A9
:1026D0008BFE8DE7707265737320627574746F6E14
:1026E000000000002020707265737320627574749E
:1026F0006F6E000020582D2D2D2D2D592D2D2D2D97
:102700002D5A200025642020256420202564000007
:10271000436F6D706173733A20252E32660000009E
:102720005FEA400C08BF91F0000F4FEA8C234FEA9C
:10273000C12243EA51514FEA1C5018BF00F5F04046
:102740004FEA300018BF41F000415FEA6C5C00F0D6
:102750002980BCF1FF3F08BF40F080407047130C58
:1027600006BF12044FF0100C4FF0000C130E04BF04
:1027700012020CF1080C130F04BF12010CF1040C2F
:10278000930F04BF92000CF1020CD30F04BF520050
:102790000CF1010C11464FF00002A0F11F00A0EB5C
:1027A0000C00704711F0004F08BF704731F0004136
:1027B0003FF4D5AF0B0C06BF09044FF0100C4FF0DF
:1027C000000C0B0E04BF09020CF1080C0B0F04BF28
:1027D00009010CF1040C8B0F04BF89000CF1020CF1
:1027E000CB0F04BF49000CF1010CCCF1200322FAFD
:1027F00003F341EA030102FA0CF2A0EB0C0000F132
:102800000100704723F07F4720F07F4C80EA0300EF
:1028100000F00040ACEB070303F57C5303F1FF032A
:102820002DE9804909B44FEA144324EA03484FEAEA
:10283000154B25EA0B4E0FF2042606EB13273E78C4
:1028400003FB0667C7F5000707FB06F64FEAD64607
:1028500006F102064FEA543707FB066CCCF1005C28
:102860004FEA1C472CEA074C0CFB06F507FB06F465
:1028700004EB15464FEA961649085FEA320234BF68
:1028800000204FF000404FEAD13706FB07FC4FEA2B
:102890001C4C0CFB0BF7D21B03FB0CF761EB070185
:1028A0000CFB0EF7B0EB074072EB17420CFB08F77E
:1028B00034BFA2EB0742B2EB074261EB17414FEA8C
:1028C0000C444FEA910706FB07FC4FEA1C4C0CFB3B
:1028D0000BF7B0EBC74072EB573203FB0CF734BF7A
:1028E000A2EBC742B2EBC74261EB57310CFB0EF7CC
:1028F000B0EBC70072EB57720CFB08F734BFA2EBCA
:10290000C702B2EBC70261EB57714FEA816141EA3E
:1029100092114FEA826242EA90124FEA806004EB21
:10292000CC04039F4FEAD13706FB07FC4FEA1C4C4F
:102930000CFB0BF7D21B03FB0CF761EB07010CFB45
:102940000EF7B0EB074072EB17420CFB08F734BFF1
:10295000A2EB0742B2EB074261EB17414FEA8C55FD
:1029600004EB9C244FEA910706FB07FC4FEA1C4C42
:102970000CFB0BF7B0EBC74072EB573203FB0CF7C5
:1029800034BFA2EBC742B2EBC74261EB57310CFB3D
:102990000EF7B0EBC70072EB57720CFB08F734BFB1
:1029A000A2EBC702B2EBC70261EB57714FEA81613C
:1029B00041EA92114FEA826242EA90124FEA806045
:1029C00015EB4C2544F100044FEAD13706FB07FC18
:1029D0004FEA1C4C0CFB0BF7D21B03FB0CF761EB13
:1029E00007010CFB0EF7B0EB074072EB17420CFB34
:1029F00008F734BFA2EB0742B2EB074261EB174185
:102A00004FEA813141EA92414FEA823242EA9042F2
:102A10004FEA80304FEA0C7615EB1C1544F10004A8
:102A200048EA03434EEA0B484FF0000EB2EB080CA5
:102A300071EB030724BF624639464EEB0E0E4FF092
:102A4000000B0018524149414BEB0B0BB2EB080C49
:102A500071EB03077BF1000B24BF624639464EEB56
:102A60000E0E4FF0000B0018524149414BEB0B0B7F
:102A7000B2EB080C71EB03077BF1000B24BF62463D
:102A800039464EEB0E0E51EA020718BF46F001061A
:102A900016EB0E7655F1000254F1000103D5BDE8A6
:102AA0008901BDE80088BDE88901BDE80048B61984
:102AB000524141EB0101A3F10103704780807F7E09
:102AC0007D7C7B7A797877767675747372717170A4
:102AD0006F6E6E6D6C6C6B6A6A6968686766666556
:102AE0006464636362616160605F5F5E5E5D5D5CE4
:102AF0005C5B5B5A5A595958585757565655555555
:102B00005454535352525251515050504F4F4F4EB4
:102B10004E4D4D4D4C4C4C4B4B4B4A4A4A49494902
:102B20004848484747474746464645454544444444
:102B30004443434343424242424141419C46002B6D
:102B400030D477002BD04FEA37071CB503B44FF0D1
:102B500010004FF01001BAF1000F06D0BCF1000FC9
:102B6000DCBF40F0080040F008014FF000000FBC4F
:102B7000BDE810400BF1010BBBF1010F08BF5FEA8C
:102B8000170722BF12F1010211F101014FF00041BC
:102B900043F1000300F0004043EA00007047F9D31E
:102BA0005708D0E746EA06464FEA164613F1400FAB
:102BB0001FDD13F1200FDFBF16430A46002120332B
:102BC0005B42BED0C3F1200746EA06464FEA1646EE
:102BD00002FA07F746EA070622FA03F2C3F12007D2
:102BE00001FA07F742EA070221FA03F14FF0000366
:102BF000A7E746EA020646EA06464FEA164646EACE
:102C00000106BCBF46EA0646360C4FF000034FF003
:102C100000024FF0000194E72DE9804C70B49A4611
:102C2000934691E8380007C831EA400C48BF34EABF
:102C3000430C03D5FFF7E6FDFFF780FFF0BCBDE8CE
:102C4000008C2DE9804C70B49A46934691E8380088
:102C500007C810F0804F08BF13F0804F03D100F079
:102C600005F8FFF76BFFF0BCBDE8008C20F07F4754
:102C700023F07F4C80EA030000F0004007EB0C03D8
:102C8000A3F57C53A3F1FE0392F0000F00F0B38094
:102C900095F0000F00F077802DE901494FEA1140CF
:102CA00021EA00484FEA144624EA064700FB06FCE6
:102CB00008FB06F607FB08F818EB06484CEB164C29
:102CC00000FB07F718EB07484CEB17404FEA124B95
:102CD00022EA0B4E4FEA154625EA06470BFB06FC97
:102CE0000EFB06F607FB0EFE1EEB064E4CEB164CDB
:102CF0000BFB07F71EEB074E4CEB174B18EB0B08C3
:102D000040F1000018EB0E0B58EB000840F10000FA
:102D10008F1A4FF000014FF000063CBFC943661BFD
:102D200014BFB5EB040C00213CBFC943F61B4FEAAE
:102D3000174427EA04454FEA1C472CEA074C04FBDA
:102D4000076205FB07F70CFB05F616EB074642EB9F
:102D5000174204FB0CFC16EB0C4642EB1C421BEB2F
:102D6000060658EB020241414EEA8E0E46EA9E06E6
:102D700001D5BDE80189B619524141EB0101A3F12A
:102D80000103BDE801894FEA144524EA05464FEAEC
:102D9000114721EA074C05FB07F406FB07F70CFB7C
:102DA00006F111EB074144EB174405FB0CFC11EB5A
:102DB0000C4144EB1C444FEA124722EA074C05FB46
:102DC00007F206FB07F70CFB06F616EB074642EB8D
:102DD000174205FB0CFC16EB0C4642EB1C456A182F
:102DE00054F1000148BF7047B619524141EB01014F
:102DF000A3F10103704795F0000F37D04FEA11425D
:102E000021EA02464FEA144724EA074C02FB07F185
:102E100006FB07F70CFB06F414EB074441EB1741E4
:102E200002FB0CFC14EB0C4441EB1C414FEA154730
:102E300025EA074C02FB07F506FB07F70CFB06F635
:102E400016EB074645EB174502FB0CFC16EB0C4650
:102E500045EB1C42121951F1000148BF7047B619E9
:102E6000524141EB0101A3F1010370474FEA1445C0
:102E700024EA05464FEA114721EA074C05FB07F112
:102E800006FB07F70CFB06F212EB074241EB17417A
:102E900005FB0CFC12EB0C4251EB1C414FF0000601
:102EA00048BF7047921841EB0101A3F1010370473D
:102EB000490050EAC12018BF04204A0D18BF40F055
:102EC000010040F2FF72B2EB515F08BF40F0020018
:102ED000012808BF052070474100080218BF0420E0
:102EE0000A0E18BF40F001004FF07F4232EA0101A4
:102EF00008BF40F00200012808BF0520704700F01D
:102F000041BC6FF05E01080700F0D1BF30380A28DD
:102F100001D2012070470020704700002DE9F047E2
:102F20004FF0684202EB40030C460546B3F1654F93
:102F30003CBF02EB4102B2F1654F80F0CD8000BF93
:102F4000C0F3C752C1F3C753D21A1B2A06DD10F0D3
:102F5000004F14BF87488848BDE8F08712F11A0F68
:102F60002FDA11F0004F06D010F0004F0CBF83484D
:102F70008348BDE8F0872146284600F0A1FC0646BC
:102F8000FFF7AAFF042808BFFFF7BBFF2846FFF79B
:102F9000A3FF05462046FFF79FFF04463046FFF794
:102FA0009BFF042D18BF052D08D1042C18BF052C3C
:102FB00004D1002804BF0220FDF782F93046BDE8A5
:102FC000F0874200B2EB410F25D910F0004F19BF36
:102FD0006C4F6D4E6D4F6E4E224685F00044154687
:102FE0000A4680F0004110460A1A5200B2F1807F72
:102FF0003ED248406749DFF8A0A110F0004F18D03A
:103000004FF03F48384600F0A7FE0746514630468D
:1030100000F0A2FE17E011F0004F04BF0026374673
:10302000E2D010F0004F19BF5C4F5D4E5D4F5E4E19
:10303000DAE74FF07C58384600F0A4FB07465146CB
:10304000304600F09FFB06464146284600F0AEFDA4
:10305000214600F097FB82462146404600F0A6FD3F
:10306000294600F06FFE514600F02AFC044604E0B9
:103070002146284600F024FC0446014600F096FD57
:1030800080464A4900F092FD494900F07BFB4146E9
:1030900000F08CFD474900F075FB414600F086FDCD
:1030A000454900F06FFB414600F080FD434900F0C8
:1030B00069FB05464146204600F078FD294600F0B0
:1030C00075FD314600F05EFB214600F05BFB3946A2
:1030D000BDE8F04700F056BB4FF07F42B2EB400F27
:1030E00028BFB2EB410F03D2BDE8F047FFF707BF9F
:1030F00040EA01035B0008BF44F0FF410AD0B2EB95
:10310000400F08BFB2EB410F06D125F0804024F0FC
:10311000804105460C4613E7B2EB400F12BF5FEA51
:10312000410345F0FF4004F000413FF409AFB2EB2A
:10313000410F12BF5FEA400205F0004044F0FF413A
:103140003FF4FEAE4A0092EA40033FF5F9AE002A92
:10315000ACBF4FF09F464FF03E56314600F026FD83
:1031600005463146204600F021FD0446284621460A
:10317000E6E60000DB0FC9BFDB0FC93FDB0F4940AC
:10318000DB0F49C00000C9BF22AAFDB90000C93F3A
:1031900022AAFD390060ED3EC30ACE37000049C0C7
:1031A00022AA7DBA0000494022AA7D3A2DAD65BD14
:1031B0008FB8D53D0FB511BE61C84C3EA8AAAABEB6
:1031C00010B500290AD00878002807D005487844AF
:1031D000FEF7A0F8002801D0002010BD0248784476
:1031E00010BD00009E0E0000960E000010B50029D4
:1031F0000AD00878002807D005487844FEF78AF8F6
:10320000002801D0002010BD0248784410BD000005
:103210008E0E0000860E000021F0004201F00043F7
:10322000A2F16052B2F5801F28BFD2F17F6C0BD99A
:103230005FEA001C43EAC20242EB507018BF7047BD
:1032400028BF20F001007047B2F5801FBCBF1846B0
:1032500070474FEA410C1CF5001F02D2084600F0EF
:103260006CBD70B500F00EFA00000089FFF7F6BFE4
:103270004FF00040A0F58000704700002DE9C041EC
:1032800030B4DFF8A4C23CEA111418BF3CEA1314AE
:1032900000F0ED801CEA111481EA030544EAD574BC
:1032A00018BF1CEA131500F0C880A4EB050404F154
:1032B0007F7404F500344FF0004545EAC12145EA2A
:1032C000C32341EA505143EA52534FEAC0204FEA28
:1032D000C222994208BF904200F09D804FEA1365D8
:1032E0000FF24416765D4FEA134506FB05F7C7F16A
:1032F000807706FB07F74FEAD737A7FB03687642CC
:10330000A7FB06CEC8F5803838BFA8F1010807FB37
:1033100008E6A6FB028C4FF0000EE6FB03CEDCF1C4
:10332000000CCEF1004E38BFAEF1010EA6FB0C58DA
:103330004FF00007E6FB0E87A1FB08C6A0FB07CEF7
:1033400016EB0E064FF0000545F10005E1FB0765A1
:1033500015F1E04E7EBFA4F580345FEA46066D416C
:1033600016F1800745F100054FEA172747EA056780
:103370004FEA15254FEA0666A6F1DE46B6F1805FF4
:1033800020D9384605EBC47124F0010C01EB0C1177
:10339000BCF1FE6F02D8F0BCBDE8008124425CBFE6
:1033A00001F5801E9EEAC47F02D4F0BCBDE8008116
:1033B000244200F13980A1F1C041F0BCBDE80041D8
:1033C00000F0AEB94FEAD02040EA41504FEAD12197
:1033D0004FEAD22242EA43524FEAD323A7FB0286A6
:1033E00007FB036605FB02661EEA0E0F58BFA6EB3D
:1033F0000056B6EB00564FEA520E4EEAC37E18EB6B
:103400000E0E56EB530EBCD518EB02085E417F1C26
:1034100055F10005B5E74FF480154FF000074FF068
:1034200000064FF00008ACE701F1C04101F0004197
:103430004FF00000F0BCBDE800810CEA131511EA62
:103440000C1F00D00CE013EA0C1F00F026804FF098
:10345000000081EA030101F00041F0BCBDE80081F9
:10346000F0BCBDE8004181EA030100F059B9F0BCAD
:10347000BDE8004170B500F005F900BF097EFC3ED3
:1034800000F007B84FF0000081EA030101F00041AD
:10349000704781EA030100F043B9F0BCBDE8004188
:1034A00022494FF000007047FFFDFBF9F7F5F4F2F9
:1034B000F0EEEDEBE9E8E6E4E3E1E0DEDDDBDAD8CF
:1034C000D7D5D4D3D1D0CFCDCCCBCAC8C7C6C5C42D
:1034D000C2C1C0BFBEBDBCBBBAB9B8B7B6B5B4B344
:1034E000B2B1B0AFAEADACABAAA9A8A8A7A6A5A42F
:1034F000A3A3A2A1A09F9F9E9D9C9C9B9A999998F3
:103500009797969595949393929191908F8F8E8E95
:103510008D8C8C8B8B8A8989888887878685858422
:1035200084838382828181800000FF070000F87F0E
:1035300070B5DFF848C11CEA111E1EBF1CEA131546
:103540009EEA0C0F95EA0C0F00F06F8081EA0304ED
:103550004EEAD47EAE4421EA4C1123EA4C1341F4E6
:10356000801143F48013AEF17F7EA1FB024CA0FBDF
:103570000365361955EB0C05A1FB034C4CF1000318
:10358000A0FB021C16EB0C06654153F10003094237
:1035900018BF46F0010613F4007F0BD14FEA033148
:1035A0004FEA053041EA155140EA165034036FF0F6
:1035B00003020AE04FEAC3214FEAC52041EA555110
:1035C00040EA5650F4026FF0020202EB2E4201EB89
:1035D000025585EACE710AD05FEA440C18BF24F088
:1035E000004450F1000041F1000120EAD47040F2A3
:1035F000FE7C624500D270BDA84214BF4FF08044EB
:103600004FF04044002E08BF0024BEF1806FA8BFD9
:10361000A1F1C041BDE8704080F2828001F1C0415B
:1036200001F000414FF0000070470CEA13159EEACC
:103630000C0F18BF95EA0C0F06D081EA030E4FF06D
:1036400000000EF0004170BD00F01CF88900013E42
:1036500000F007B800F009B84FEA430C5FEA5C5C81
:1036600008D081EA030100F05BB84FEA410C5FEA41
:103670005C5CF6D102494FF0000070470000FF0784
:103680000000F87F0EF1020E2EF0030E5EF8046BC0
:10369000364205D4012A43EB030515F5001F12D865
:1036A000012841EB010C1CF5001F0CD80ED14FEA8C
:1036B000D17C0CEB4C0C0CF1020C15F5001F08BF73
:1036C0004CEBD37C04E04FF0080C01E04FEAD37CD4
:1036D0000CEB4C0526FA05F606F00706B6F1040CCD
:1036E00006D20EEB860CBDE870404CF0010C604732
:1036F000DFE80CF0090B02024FF00041A1F50021B8
:103700004FF0000070BD19461046012851EB01042E
:1037100018BFD4F5001484BF002001F0004170BD33
:103720000808A0F500114FEA3101704743004FEA45
:10373000D30C4FEA3C0C43401FBF40070CF16051D3
:1037400013F0FE4F70471CF0006F03D10CF00041E6
:10375000002070470CF0004343EA507040EACC0070
:1037600010B500F0A4FA00BF000000924FEA00017B
:10377000FFF7D6BF4FF00041A1F500214FF0000048
:103780007047000090EA010F48BF81F0004100F14E
:10379000EA82421A3CBF801A89184FEAD052A2EB43
:1037A000D1534FF07F4C1CEA410F18BF9CEA026FC7
:1037B00000F03B804FF0004C4CEA00204CEA012125
:1037C00021FA03FC10EB0C0C1ED202F1FF325FEA6F
:1037D0001C2040EBC25038BF70471CF07F0F4FEAEF
:1037E000400C18BFBCF17F4F38BF7047C3F12003B6
:1037F000994008BF20F00100BCF17F4F38BF7047EF
:10380000A0F1C04000F099BA4FEA3C00000A40EB3A
:10381000C25028BF1CF0FF0F4FEA400CE6D018BF83
:10382000BCF17F4F38BF7047EAE79CEA026F05D0D2
:1038300010EA5C0F08BF00F00040704710B500F0C0
:1038400036FA00BF64FBBE3E014800F0FEBA00BF7E
:103850000000C07F10B500F0F5F80CBF012000207B
:1038600010BD10B500F0EEF814BF0120002010BD0F
:1038700010B500F033F98CBF0120002010BD10B549
:1038800000F02CF92CBF0120002010BD10B500F075
:1038900059F994BF0120002010BD10B500F052F975
:1038A00034BF0120002010BD401058BFC0F140407F
:1038B000491058BFC1F140418142EFF30080704789
:1038C0004FF47F0C1CEAD0121EBF1CEAD11392EAFF
:1038D0000C0F93EA0C0F00F0858090EA010F48BFAF
:1038E00042F4807240F4000C41F400002CF07F415F
:1038F00020F07F4000B5A2EB030281420FF2081CCA
:10390000ACEB504E9EF800E0C0F100004FEA4E0EC6
:1039100000FB0EFC38BF49004FEA2C1C0CFB0EF3D9
:103920004FEACE1E0EEB635E4FEA112C0EFB0CFC31
:103930004FEAC1214FEA1C5300FB031102F5FA02C2
:103940004FEA112C0EFB0CFC4FEA01314FEADC4C24
:1039500000FB0C1142EB2242C14228BF09184CEB7C
:1039600003335DF804EB10EB410143EBC250B2F5B9
:103970007C0F38BF704729D512F0F00F1CBF00F143
:10398000C04000F0004070470081828384858687B4
:1039900088898B8C8D8E8F919293959697999A9C0E
:1039A0009D9FA0A2A3A5A7A8AAACAEB0B2B3B5B77D
:1039B000B9BCBEC0C2C5C7C9CCCED1D4D7D9DCDF53
:1039C000E2E6E9ECF0F3F7FAFE0000004FEA400C03
:1039D0000CF1807CBCF17E4F28BF7047B0F1C04035
:1039E00000F0ABB90CEAD11390EA010F48BF42F4E2
:1039F0008072624538BF634507D213F47F0F16D03B
:103A000080EA010000F00040704710B500F04FF967
:103A1000097EFC3E00F005B880EA010000F000409D
:103A2000704780EA010000F0004000F086B912F40F
:103A30007F0F04BF0248704780EA010000F07DB9A3
:103A40000000C07F50EA010C00F113801CF5000F4C
:103A500058BFBCF5000F01D48842704707D710F556
:103A6000000F58BF11F5000F15D4884270478942E6
:103A700070471CF5000F04D5BCF5000FF7D5814247
:103A800070474FF0807C1CEB400F38BF1CEB410FA0
:103A900001D28142704710B500F009F99224490023
:103AA0004FF000504FF08051FFF7FEBE10F0004184
:103AB00048BF4042B0FA80F310FA03F2C3F19D030D
:103AC0000BD051EAC35101EB1220530638BF7047A7
:103AD00000F1010008BF20F00100704750EA010C1E
:103AE00000F113801CF5000F58BFBCF5000F01D486
:103AF0008842704707D710F5000F58BF11F5000F27
:103B000015D488427047894270471CF5000F04D5D0
:103B1000BCF5000FF7D5814270474FF0807C1CEB5D
:103B2000400F38BF1CEB410F01D28142704710B5E6
:103B300000F0BDF8922449004FF080504FF0005142
:103B4000FFF7B2BE50EA010C00F113801CF5000F24
:103B500058BFBCF5000F01D48842704707D710F555
:103B6000000F58BF11F5000F15D4884270478942E5
:103B700070471CF5000F04D5BCF5000FF7D5814246
:103B800070474FF0807C1CEB400F38BF1CEB410F9F
:103B900001D28142704710B500F089F892244900A3
:103BA0004FF000504FF08051FFF77EBE4FF47F0C76
:103BB0001CEAD0121EBF1CEAD11392EA0C0F93EA42
:103BC0000C0F00F0478090EA010F48BF42F480726A
:103BD0004FF0004C4CEA00204CEA012102EB0302BA
:103BE000A0FB0113A2F50002002918BF43F0010356
:103BF0005B0028BF4FEA330342EB22425FEA132CFB
:103C00004CEBC2502EBFBCEB436FB2F57C0F70473C
:103C10004FEA036CBCF1004F08BF20F00100B2F581
:103C20007C0F38BF70470BD582F0FF0212F5803F42
:103C3000C8BF704700F1C040D8BF00F000407047D7
:103C400000F5000C5FEA4C0C48BF7047B0F1C04073
:103C500000F073B80CEAD11390EA010F48BF42F4A8
:103C60008072624538BF634504D280EA010000F0EB
:103C70000040704710B500F01AF800BF8900013EFF
:103C800000F007B800F009B85FEA410C5FEA1C6C6D
:103C900008D080EA010000F050B85FEA400C5FEA0B
:103CA0001C6CF6D14FF00040A0F5800070470EF17B
:103CB000020E2EF0030E5EF8044B244204D44FEAA9
:103CC0004102B2F17F4F11D84FEA4003B3F17F4F69
:103CD0000CD80ED14FEAD07C0CEB4C0C0CF1020C42
:103CE000B2F17F4F08BF4CEBD17C04E04FF0080CE1
:103CF00001E04FEAD17C0CEB4C0324FA03F404F00E
:103D00000704B4F1040C06D20EEB840CBDE810409D
:103D10004CF0010C6047DFE80CF0070802024FF09E
:103D20000040A0F5800010BD0846420018BFD2F147
:103D3000807288BF00F0004010BDFF2141EAD050E2
:103D4000C005704780F0004090EA010F7FF521AD7B
:103D500081F0004100F007B890EA010F48BF81F000
:103D600000413FF516AD421A04D882F00042A0EBA4
:103D7000020011444FEAD052A2EBD1534FF07F4CD6
:103D80001CEA410F18BF9CEA026F4AD04FF0004C6A
:103D90004CEA00204CEA012121FA03FCB0EB0C0CA8
:103DA0000FD412F0FE0F36D05FEA4C001DD5001282
:103DB00040EBC25038BF70471CF03F0F18BF704730
:103DC0000BE05FEA1C20A2F1010240EBC25038BFB9
:103DD00070471CF07F0F18BF7047C3F12003994054
:103DE00014BF401E20F0010070474FEA12238008E4
:103DF00008BF7047B0FA80FCA2EB0C02CCF1280C93
:103E000060FA0CF093EA122F04BF00EBC250704727
:103E10004FEAC3707047130A5FEADC1008BF7047AF
:103E2000F6E79CEA026F04D010EA5C0F08BF00209E
:103E3000704710B5FFF73BFF40DFF63E81F00040D2
:103E40007047FCF771BEFCF7A5BF0CF00F03092B00
:103E500008BF082000F051800A2B0BD0082B18BF98
:103E6000704708BF1CF0400F0AD04FF000004FF021
:103E7000000170471CF0400F18BF4FF00040704722
:103E80001CF0100F08D000F07F4220F0704342EA8F
:103E9000D3014FEA4370704700F0604021F07F4249
:103EA00042EA000201F07F4040EA727070474FF032
:103EB000FF0212EAD0521CBF92F0FF038B42C2BF36
:103EC000D14200EBC1507047002A0AD0002B0BD022
:103ED00000F000400029A4BF40F0FE4040F4000084
:103EE000704700F00040704743024FF00B0C18BFC2
:103EF0004CF0806C7FF4A8AC70471CF4801F11D08C
:103F00001CF4E02F03D06FEACC31490070474FF02A
:103F10004050EFF3008222F0704242EA000282F346
:103F2000008870474FF0000070470000000000005C
:103F300000000000303132333435363738394142F1
:103F400043444546403058003031323334353637FB
:103F500038396162636465664030780004000008A7
:103F600000000000000000020001000010303132AB
:103F7000333435363738396162636465667870008A
:103F8000303132333435363738394142434445468F
:103F90005850000002400000000000A00000000097
:103FA00005400000000000C8000000000C400000B8
:103FB0000000409C00000000194000000020BCBE32
:103FC0000000000034400000BFC91B8E0000000448
:103FD000B5400000504BCFD06607E2CF0100000093
:103FE0006C4100003E8251AADFEEA73401000000C0
:103FF000D9420000DCB5A0E23A301F97FFFFFFFF77
:10400000B4450000FD25A0C8E9A3C14FFFFFFFFF95
:10401000FF3F00000000008000000000FF3F0000A4
:104020000000008000000000000000000000000010
:10403000010203040607080901020203040506073A
:1040400008090A0B0C0D0E0F101000009841000813
:10405000000000201000000028010008A84100080E
:104060001000002090060000440100081C00000021
:1040700043000000F8FFFFFF0C0000000E000000EE
:104080000F0000002E00000010010000430000009F
:10409000F8FFFFFF00404040404040404040414169
:1040A000414141404040404040404040404040400D
:1040B00040404040400502020202020202020202A7
:1040C00002020202022020202020202020202002A4
:1040D0000202020202029090909090901010101034
:1040E00010101010101010101010101010101010D0
:1040F0000202020202028888888888880808080864
:10410000080808080808080808080808080808082F
:104110000202020240000000000000000000000057
:10412000000000000000000000000000000000008F
:10413000000000000000000000000000000000007F
:10414000000000000000000000000000000000006F
:10415000000000000000000000000000000000005F
:10416000000000000000000000000000000000004F
:10417000000000000000000000000000000000003F
:10418000000000000000000000000000000000002F
:10419000000000000000000001000000100000000E
:0841A0000024F40001000000FE
:04000005080000ED02
:00000001FF
